:020000040800F2
:10000000000002201D080008E5070008E7070008B7
:10001000E9070008EB070008ED07000800000000F2
:100020000000000000000000000000006117000850
:10003000EF0700080000000001180008651800081C
:100040006D0800086D0800086D0800086D080008BC
:100050006D0800086D0800086D0800086D080008AC
:100060006D0800086D0800086D0800086D0800089C
:100070006D0800086D0800086D0800086D0800088C
:100080006D0800086D0800086D0800086D0800087C
:100090006D0800086D0800086D0800086D0800086C
:1000A0006D0800086D0800086D0800086D0800085C
:1000B000F10700086D0800086D0800086D080008C9
:1000C0006D0800086D0800086D0800086D0800083C
:1000D0006D0800086D0800086D0800086D0800082C
:1000E0006D0800086D0800086D0800086D0800081C
:1000F0006D0800086D0800086D0800086D0800080C
:100100006D0800086D0800086D0800086D080008FB
:100110006D0800086D0800086D0800086D080008EB
:100120006D0800086D0800086D0800086D080008DB
:100130006D0800086D0800086D0800086D080008CB
:100140006D0800086D0800086D0800086D080008BB
:100150006D0800086D0800086D0800086D080008AB
:100160006D0800086D0800086D0800086D0800089B
:100170006D0800086D0800086D0800080000000008
:080180006D0800086D0800087D
:1001900010B5054C237833B9044B13B10448AFF3C1
:1001A00000800123237010BD140000200000000017
:1001B0009024000808B5034B1BB103490348AFF373
:1001C000008008BD000000001800002090240008F6
:1001D00053B94AB9002908BF00281CBF4FF0FF31AE
:1001E0004FF0FF3000F070B9ADF1080C6DE904CEAE
:1001F00000F006F8DDF804E0DDE9022304B0704702
:100200002DE9F047089E0D4604460F46002B4AD1C3
:100210008A42944665D9B2FA82F343B102FA03FCEA
:10022000C3F120029F4020FA02F217439C404FEA9C
:100230001C4E1FFA8CF5B7FBFEF1220C0EFB11775A
:1002400042EA074201FB05F090420AD91CEB020288
:1002500001F1FF3780F01C81904240F21981023990
:100260006244121AA4B2B2FBFEF00EFB102244EA62
:10027000024400FB05F5A5420AD91CEB040400F179
:10028000FF3280F00781A54240F2048164440238C5
:1002900040EA0140641B00211EB1DC400023C6E996
:1002A0000043BDE8F0878B4208D9002E00F0ED80B6
:1002B0000021C6E900050846BDE8F087B3FA83F1DE
:1002C000002949D1AB4202D3824200F2F880841A5D
:1002D00065EB030201201746002EE2D0C6E9004775
:1002E000DFE702B9FFDEB2FA82F3002B40F0908024
:1002F0008A1A4FEA1C471FFA8CFE0121B2FBF7F560
:1003000007FB1520220C42EA00420EFB05F090424A
:1003100008D91CEB020205F1FF3802D2904200F22C
:10032000CB804546121AA4B2B2FBF7F007FB1022AD
:1003300044EA02440EFB00FEA64508D91CEB040467
:1003400000F1FF3202D2A64500F2BB801046A4EBBA
:100350000E0440EA05409FE7C1F120078B4022FAD6
:1003600007FC4CEA030C05FA01F420FA07F3FD4000
:100370004FEA1C492343B5FBF9F81FFA8CFE09FB31
:1003800018551C0C44EA054408FB0EF5A54202FA78
:1003900001F200FA01F00BD91CEB040408F1FF3A5A
:1003A00080F08880A54240F28580A8F1020864446C
:1003B000641B9DB2B4FBF9F309FB134445EA044402
:1003C00003FB0EFEA64508D91CEB040403F1FF3520
:1003D0006CD2A6456AD9023B644443EA0843A3FBB6
:1003E0000295A4EB0E04AC42C846AE4656D353D099
:1003F00056B1B0EB080264EB0E0404FA07F7CA40EA
:10040000CC401743C6E9007418460021BDE8F087C8
:10041000C3F1200102FA03FC20FA01F225FA01F1EE
:100420009D402A434FEA1C471FFA8CFEB1FBF7F0B0
:1004300007FB1015110C41EA054100FB0EF58D423A
:1004400004FA03F408D91CEB010100F1FF382FD2A4
:100450008D422DD902386144491B92B2B1FBF7F5A8
:1004600007FB151142EA014205FB0EF1914208D942
:100470001CEB020205F1FF3816D2914214D9023D5D
:100480006244521A45EA004138E73146304608E7EF
:100490003946E6E61046FBE64845A9D2B9EB020824
:1004A00065EB0C0E013BA3E74546EAE72B4694E7D4
:1004B0004046D1E7D0467BE7023D624432E708463A
:1004C0000AE76444023842E7704700BF08B50D48A8
:1004D0000D4B03600323436000238360C3604FF42C
:1004E000102202614FF40012426103764376837654
:1004F000C3760377437700F0E7F900B908BD00F051
:10050000AEF8FBE7300000200064004000B589B081
:100510000023039304930593069307930268144BF7
:100520009A4202D009B05DF804FB0021019103F565
:10053000EA331A6C42F000721A641A6C02F000720C
:100540000192019A02911A6B42F008021A631B6B26
:1005500003F008030293029B0323039302220492F5
:1005600006930923079303A9024800F0ABFAD9E7E1
:1005700000640040000C024008B5012001F04AF878
:10058000FBE708B5012001F045F8FBE7034B0360EA
:10059000034B0B6080231360704700BF6002002094
:1005A0006000002010B58EB0124C0DF11C0CA64658
:1005B000BEE80F00ACE80F009EE807008CE80700DB
:1005C000002107A800F0F3FF0B4B1860EE4604F182
:1005D0001C0CBCE80F00AEE80F009CE807008EE89A
:1005E00007000021684600F0E2FF044B18600EB0DF
:1005F00010BD00BFA82400085C00002058000020A7
:1006000084B000220192104B196B41F00101196373
:10061000196B01F00101019101990292196B41F0EE
:1006200008011963196B01F0080102910299039204
:100630001A6B42F080021A631B6B03F08003039372
:10064000039B04B0704700BF0038024008B5036840
:10065000B3F1804F00D008BD00F024F9FBE772B67B
:10066000FEE7000000B595B03022002108A801F097
:100670007DFE002303930493059306930793019350
:10068000204A116C41F080511164126C02F08052CA
:100690000192019A02931C4B1A6842F480421A603C
:1006A0001B6803F480430293029B012308934FF4D9
:1006B0008033099302230E934FF480020F92062297
:1006C0001092A822119212930423139308A800F009
:1006D000E1FA98B90F2303930223049300230593AF
:1006E0004FF4A05306934FF480530793052103A8BA
:1006F00000F01AFD20B915B05DF804FBFFF7AFFF5D
:10070000FFF7ADFF003802400070004008B500F070
:10071000AFF8FFF7A7FFFFF773FFFFF7D7FEFFF76D
:1007200041FF00F03FFFFEE700B583B000220092DA
:100730000D4B596C41F480415964596C01F480416E
:10074000009100990192196C41F0805119641B6C61
:1007500003F080530193019B0F216FF0010000F023
:100760006BF903B05DF804FB0038024010B588B0A7
:10077000014600221C2000F05FF91C2000F094F9D3
:1007800000240194144B1A6C42F001021A641B6C91
:1007900003F001030193019B02A903A800F08AFD65
:1007A00000F078FD43000D4AA2FB03239B0C013BA4
:1007B0000B484FF08042026040F2E732C260436073
:1007C0000461846000F0CCFE10B1012008B010BDBF
:1007D000034800F08EFDF9E70038024083DE1B433A
:1007E000B4020020FEE7FEE7FEE7FEE7FEE7704703
:1007F00008B5024800F092FD08BD00BFB402002019
:10080000054BD3F8882042F47002C3F888204FF0DB
:1008100000629A60704700BF00ED00E0DFF834D05E
:10082000002103E00C4B5B58435004310B480C4B48
:1008300042189A42F6D30B4A02E0002342F8043BE6
:10084000094B9A42F9D3FFF7DBFF01F097FDFFF761
:100850005DFF7047000002202C25000800000020EA
:100860001400002014000020DC410020FEE70000FE
:1008700008B50B4B1A6842F400721A601A6842F409
:1008800080621A601A6842F480721A60032000F0D5
:10089000C1F80020FFF76AFFFFF746FF002008BD00
:1008A000003C0240034A1168034B1B780B44136061
:1008B000704700BFF402002004000020014B1868BC
:1008C000704700BFF4020020002800F0A18038B576
:1008D000044690F82030D3B12268136823F0020355
:1008E0001360FFF7EBFF054623685A6812F0020F0A
:1008F00010D0FFF7E3FF401B0A28F5D9636A43F4E1
:1009000000336362052384F82030012038BDFFF7EF
:10091000FDFDE1E71A6842F001021A60FFF7CEFF21
:10092000054623685A6812F0010F0DD1FFF7C6FF84
:10093000401B0A28F5D9636A43F400336362052338
:1009400084F820300120E1E7227E012A3DD01A6898
:1009500022F080021A60637E012B3BD0226813686C
:1009600023F040031360A37E012B39D02268136863
:1009700023F020031360E37E012B37D02268136835
:1009800043F010031360237F012B35D022681368D6
:1009900023F008031360637F012B33D022681368B0
:1009A00023F004031360A368E2681343226913432E
:1009B000626913436268013A21681343CB610020E6
:1009C0006062012384F82030A0E71A6842F08002B8
:1009D0001A60C0E72268136843F040031360C2E75F
:1009E0002268136843F020031360C4E72268136889
:1009F00023F010031360C6E72268136843F008036E
:100A00001360C8E72268136843F004031360CAE761
:100A100001207047074AD36823F4E0631B041B0CD2
:100A2000000200F4E060034343F0BF6343F400338B
:100A3000D360704700ED00E000B5194BDB68C3F3ED
:100A40000223C3F1070CBCF1040F28BF4FF0040CC4
:100A500003F1040EBEF1060F18D9033B4FF0FF3E21
:100A60000EFA0CFC21EA0C0199400EFA03FE22EA70
:100A70000E020A4300280BDB1201D2B200F16040E3
:100A800000F5614080F800235DF804FB0023E5E7F2
:100A900000F00F001201D2B2024B1A54F4E700BF6B
:100AA00000ED00E014ED00E0002807DB00F01F027D
:100AB000400901239340024A42F82030704700BFAA
:100AC00000E100E000230F2B00F2DA80F0B583B0E4
:100AD0003AE0072200E00022AA4032430234694D86
:100AE00045F82420684A14686FEA0C0224EA0C05D1
:100AF0004E6816F4803F01D04CEA0405624C256034
:100B0000646802EA04054E6816F4003F01D04CEA1E
:100B100004055D4C6560A46802EA04054E6816F49D
:100B2000801F01D04CEA0405574CA560E4682240C0
:100B30004D6815F4001F01D04CEA0402524CE260EB
:100B400001330F2B00F29A8001229A400C6804EACC
:100B5000020C32EA0404F3D14C68651E012D03D95E
:100B6000112C01D0122C12D185685E000324B440F0
:100B700025EA0405CC68B4402C438460446824EA28
:100B800002044A68C2F300129A4022434260C568D8
:100B90004FEA430E032202FA0EF2D44325EA02057D
:100BA0008A6802FA0EF22A43C2604A68022A01D019
:100BB000122A0FD1DD08083550F8257003F007061A
:100BC000B6000F22B24027EA02070A69B2403A4350
:100BD00040F82520026814404A6802F0030202FA35
:100BE0000EF2224302604A6812F0805FA8D0002211
:100BF0000192264A546C44F480445464526C02F4CA
:100C000080420192019A9C08A51C1E4A52F8256058
:100C100003F00305AD000F22AA4026EA02061C4A93
:100C200090423FF458AF02F5806290421AD002F52C
:100C30008062904218D002F58062904216D002F590
:100C40008062904214D002F58062904212D002F588
:100C50008062904210D002F5806290423FF439AF3A
:100C6000082239E7012237E7022235E7032233E77A
:100C7000042231E705222FE706222DE703B0F0BD5D
:100C8000704700BF00380140003C0140003802407E
:100C900000000240002800F0DA8170B582B00446FE
:100CA000036813F0010F3BD09F4B9B6803F00C03CC
:100CB000042B2CD09C4B9B6803F00C03082B21D0F9
:100CC0006368B3F5803F4FD0B3F5A02F52D0964B59
:100CD0001A6822F480321A601A6822F480221A609C
:100CE0006368002B50D0FFF7E9FD05468E4B1B686B
:100CF00013F4003F14D1FFF7E1FD401B6428F5D940
:100D00000320ABE1884B5B6813F4800FD8D0864B8F
:100D10001B6813F4003F03D06368002B00F0998137
:100D2000236813F0020F54D07F4B9B6813F00C0F15
:100D30003ED07D4B9B6803F00C03082B33D0E36857
:100D4000002B68D0794B01221A60FFF7B7FD0546EA
:100D5000754B1B6813F0020F54D1FFF7AFFD401B1A
:100D60000228F5D9032079E16F4A136843F48033F0
:100D70001360B5E76C4B1A6842F480221A601A6857
:100D800042F480321A60ABE7FFF798FD0546664BE8
:100D90001B6813F4003FC3D0FFF790FD401B64288D
:100DA000F5D903205AE1604B5B6813F4800FC6D17C
:100DB0005D4B1B6813F0020F03D0E368012B40F07A
:100DC0004A81594A136823F0F803216943EAC103B1
:100DD0001360236813F0080F42D063696BB3534B61
:100DE0000122C3F8802EFFF769FD05464E4B5B6F6D
:100DF00013F0020F34D1FFF761FD401B0228F5D933
:100E000003202BE1484A136823F0F803216943EAE1
:100E1000C1031360DDE7454B00221A60FFF74EFD6A
:100E20000546414B1B6813F0020FD2D0FFF746FD79
:100E3000401B0228F5D9032010E13C4B0022C3F8E7
:100E4000802EFFF73BFD0546374B5B6F13F0020F1B
:100E500006D0FFF733FD401B0228F5D90320FDE043
:100E6000236813F0040F77D02F4B1B6C13F0805FB7
:100E700033D1002301932C4B1A6C42F080521A6438
:100E80001B6C03F080530193019B0125284B1B68C9
:100E900013F4807F23D0A368012B34D0052B38D0E6
:100EA000214B1A6F22F001021A671A6F22F0040216
:100EB0001A67A368002B3DD0FFF700FD06461A4BCA
:100EC0001B6F13F0020F46D1FFF7F8FC801B41F2B5
:100ED00088339842F3D90320C0E00025D6E7144AAE
:100EE000136843F480731360FFF7E8FC0646104B69
:100EF0001B6813F4807FCED1FFF7E0FC801B022833
:100F0000F5D90320AAE0084A136F43F001031367E1
:100F1000CFE7054B1A6F42F004021A671A6F42F0CE
:100F200001021A67C5E700BF0038024000004742CF
:100F300000700040FFF7C2FC06464F4B1B6F13F0DA
:100F4000020F08D0FFF7BAFC801B41F288339842A9
:100F5000F3D9032082E0E5B9A369002B7DD0464A8E
:100F6000926802F00C02082A51D0022B17D0434B92
:100F700000221A66FFF7A2FC04463F4B1B6813F0E1
:100F8000007F42D0FFF79AFC001B0228F5D903200E
:100F900064E0394A136C23F080531364DCE7374B69
:100FA00000221A66FFF78AFC0546334B1B6813F0D4
:100FB000007F06D0FFF782FC401B0228F5D90320F2
:100FC0004CE0E369226A1343626A43EA8213A26A2D
:100FD0005208013A43EA0243E26A43EA0263264ABC
:100FE0005360264B01221A66FFF768FC0446224B29
:100FF0001B6813F0007F06D1FFF760FC001B02287E
:10100000F5D903202AE0002028E0002026E0012B6B
:1010100026D0194B5B6803F48001E269914221D12B
:1010200003F03F02216A8A421ED1616A47F6C0720C
:101030001A408A421AD103F44032A16A8A4217D177
:1010400003F07063E26A934214D1002006E00120AD
:101050007047012002E0012000E0002002B070BDD6
:101060000120FBE70120F9E70120F7E70120F5E780
:101070000120F3E70120F1E7003802400000474279
:1010800008B5264B9B6803F00C03042B41D0082BBA
:1010900041D1224B5A6802F03F025B6813F4800F83
:1010A00012D01E4B5968C1F388111D480023A1FBC3
:1010B0000001FFF78DF8194B5B68C3F3014301335F
:1010C0005B00B0FBF3F027E0144B5868C0F38810C6
:1010D0004FEA401CBCEB000C6EEB0E0E4FEA8E1379
:1010E00043EA9C634FEA8C11B1EB0C0163EB0E03F6
:1010F000DB0043EA5173C90011EB000C43F100031C
:10110000990200234FEA8C2041EA9C51FFF760F8D6
:10111000D1E7034800E0034808BD00BF00380240A3
:10112000001BB7000024F400002800F09B8070B57D
:101130000D4604464F4B1B6803F00F038B4208D249
:10114000CBB24C4A1370136803F00F038B4240F08C
:101150008B80236813F0020F17D013F0040F04D014
:10116000454A936843F4E0539360236813F0080FF3
:1011700004D0414A936843F4604393603E4A9368C5
:1011800023F0F003A1680B439360236813F0010F71
:1011900032D06368012B21D09A1E012A25D9364A04
:1011A000126812F0020F61D033498A6822F00302FC
:1011B00013438B60FFF782FB06462F4B9B6803F0BF
:1011C0000C036268B3EB820F16D0FFF777FB801B2E
:1011D00041F288339842F0D9032042E0264A12684F
:1011E00012F4003FE0D101203BE0234A126812F0E4
:1011F000007FD9D1012034E01E4B1B6803F00F03A0
:10120000AB4207D9EAB21B4B1A701B6803F00F03FD
:10121000AB422DD1236813F0040F06D0164A936811
:1012200023F4E053E1680B439360236813F0080F45
:1012300007D0114A936823F46043216943EAC1034C
:101240009360FFF71DFF0C4B9B68C3F303130B4A1E
:10125000D35CD8400A4B18600A4B1868FFF786FA2F
:10126000002070BD012070470120FAE70120F8E757
:101270000120F6E7003C024000380240F824000854
:101280000000002008000020014B1868704700BFD4
:101290000000002008B5FFF7F7FF044B9B68C3F37D
:1012A0008223034AD35CD84008BD00BF0038024007
:1012B000082500080F2303600B4B9A6802F0030215
:1012C00042609A6802F0F00282609A6802F4E0528A
:1012D000C2609B68DB0803F4E0530361034B1B68A7
:1012E00003F00F030B60704700380240003C0240DF
:1012F00070470268D36843F00103D36002689368C3
:1013000003F00703062B03D0136843F001031360B7
:1013100000207047704770477047704710B504460B
:1013200003681A6912F0020F11D0DA6812F0020F86
:101330000DD06FF002021A610123037703689B69E5
:1013400013F0030F70D0FFF7E6FF00232377236825
:101350001A6912F0040F12D0DA6812F0040F0ED0DE
:101360006FF004021A610223237723689B6913F448
:10137000407F5FD02046FFF7CEFF0023237723680E
:101380001A6912F0080F12D0DA6812F0080F0ED0A6
:101390006FF008021A61042323772368DB6913F0D6
:1013A000030F4ED02046FFF7B6FF002323772368B4
:1013B0001A6912F0100F12D0DA6812F0100F0ED066
:1013C0006FF010021A61082323772368DB6913F496
:1013D000407F3DD02046FFF79EFF00232377236800
:1013E0001A6912F0010F03D0DA6812F0010F36D13A
:1013F00023681A6912F0800F03D0DA6812F0800FA8
:1014000034D123681A6912F0400F03D0DA6812F061
:10141000400F32D123681A6912F0200F03D0DA6826
:1014200012F0200F30D110BDFFF774FF2046FFF7F8
:1014300073FF8AE72046FFF76DFF2046FFF76CFF3A
:101440009BE72046FFF766FF2046FFF765FFACE706
:101450002046FFF75FFF2046FFF75EFFBDE76FF016
:1014600001021A612046FFF7F1F8C1E76FF0800230
:101470001A61204600F08FF8C3E76FF040021A614E
:101480002046FFF74AFFC5E76FF020021A612046A9
:1014900000F080F8C7E700000368304A904212D09D
:1014A000B0F1804F0FD0A2F57C4290420BD002F5F4
:1014B0008062904207D002F58062904203D002F52C
:1014C0007842904203D123F070034A681343234AC1
:1014D00090422AD0B0F1804F27D0A2F57C429042B2
:1014E00023D002F5806290421FD002F580629042C4
:1014F0001BD002F57842904217D002F5705290420C
:1015000013D002F5806290420FD002F580629042C3
:101510000BD0A2F59832904207D002F5806290423B
:1015200003D002F58062904203D123F44073CA686D
:10153000134323F080034A69134303608B68C3623B
:101540000B688362054B984203D003F58063984291
:1015500001D10B690363012343617047000001401F
:10156000B0B110B5044690F83D3063B1022384F861
:101570003D30214651F8040BFFF78EFF012384F81C
:101580003D30002010BD80F83C30FFF7B1FEEDE7A4
:101590000120704770477047842801D0033070479E
:1015A0000020704708B500F025FD002008BD2DE99A
:1015B000F04387B00E464469C4B18569B5B1476848
:1015C000D0F80080D0F81090B0F90800FFF7E4FFE1
:1015D00002950194009033464A464146384600F051
:1015E00099FC0590059807B0BDE8F083446805684C
:1015F0000769B0F90800FFF7CFFF05AB0193009032
:101600003346BAB22946204600F0BFFC0128E9D093
:101610000020E8E708B500B9012000F035FE002001
:1016200008BD00F1080343604FF0FF328260C360E1
:101630000361002303607047002303617047436820
:101640004B609A688A605160996008610368013351
:101650000360704730B40D68B5F1FF3F11D000F161
:1016600008031C465B681A68AA42FAD963684B6093
:1016700099608C606160086103680133036030BC6D
:1016800070470469F2E70369416882688A604168CB
:1016900051605A68824206D0002202611A68013AFB
:1016A0001A601868704782685A60F5E782B00023B4
:1016B00001930D4B1B68B3F1FF3F08D04FF050036F
:1016C00083F31188BFF36F8FBFF34F8FFEE74FF0A7
:1016D000500383F31188BFF36F8FBFF34F8F019BCC
:1016E000002BFCD002B070470C00002008480068B6
:1016F000006880F308884FF0000080F3148862B619
:1017000061B6BFF34F8FBFF36F8F00DF00BF0000E4
:1017100008ED00E0DFF80C00016841F470010160A1
:101720007047000088ED00E04FF0807340F8043C03
:1017300021F0010140F8081C054B40F80C3C40F832
:10174000202C6FF0020340F8243C4438704700BF5F
:10175000AD160008000000000000000000000000BE
:10176000074B19680868B0E8F04F80F30988BFF3A9
:101770006F8F4FF0000080F311887047AFF3008047
:10178000183F00204FF0500383F31188BFF36F8F91
:10179000BFF34F8F0B4A136801331360012B00D046
:1017A00070474FF0E023D3F8043D13F0FF0FF7D05C
:1017B0004FF0500383F31188BFF36F8FBFF34F8F48
:1017C000FEE700BF0C000020094B1B6843B94FF037
:1017D000500383F31188BFF36F8FBFF34F8FFEE782
:1017E000013B034A13600BB983F31188704700BFB4
:1017F0000C000020000000000000000000000000BD
:10180000EFF30980BFF36F8F154B1A681EF0100FAE
:1018100008BF20ED108A20E9F04F10602DE9090083
:101820004FF0500080F31188BFF34F8FBFF36F8FDD
:1018300000F050FD4FF0000080F3118809BC1968DA
:101840000868B0E8F04F1EF0100F08BFB0EC108A27
:1018500080F30988BFF36F8F704700BFAFF300803C
:10186000183F002008B54FF0500383F31188BFF3F1
:101870006F8FBFF34F8F00F0FFFB28B14FF0E023D5
:101880004FF08052C3F8042D002383F3118808BD64
:101890004FF0E022002313619361054B1B6805495B
:1018A000A1FB03139B09013B53610723136170479D
:1018B00000000020D34D62104FF0E023D3F8002D3C
:1018C0003D4B9A421CD04FF0E023D3F8002D3B4B08
:1018D0009A421ED030B583B0394B1A78D2B20192F9
:1018E000FF221A701B78DBB28DF803309DF80330AD
:1018F00003F05003334A1370334B07221A601BE086
:101900004FF0500383F31188BFF36F8FBFF34F8FF6
:10191000FEE74FF0500383F31188BFF36F8FBFF3DF
:101920004F8FFEE7284A1368013B13609DF8033090
:101930005B00DBB28DF803309DF8033013F0800FAD
:10194000F0D1214B1B68032B08D04FF0500383F3D9
:101950001188BFF36F8FBFF34F8FFEE71B021A4A48
:10196000136003F4E0631360019BDBB2144A13704D
:101970004FF0E024D4F8203D43F47003C4F8203D38
:10198000D4F8203D43F07043C4F8203DFFF780FFBA
:1019900000250E4B1D60FFF7BDFED4F8343F43F029
:1019A0004043C4F8343FFFF7A1FE00F093FCFFF77B
:1019B0007DFE284603B030BD71C20F4170C20F4199
:1019C00000E400E0F8020020FC0200200C000020EF
:1019D000124A12F0070F1ED0D11D21F00701C1F5E8
:1019E000705313440A460E480260002141601344BC
:1019F000083B23F007030B48036059601960991AEC
:101A000051601360084B1960084B1960084B4FF088
:101A100000421A6070474FF47053E4E7040300205B
:101A2000103F0020000300200C3F0020083F002052
:101A3000043F0020164B1A461B688342FBD35168B3
:101A400002EB010C844509D0416800EB010C6345B1
:101A500009D00360904219D010607047406801447B
:101A600051601046F0E710B40A4C2468A3420BD032
:101A70005B681944416013681B680360904200D0A2
:101A800010605DF8044B70470460F7E7704700BFD3
:101A9000103F00200003002070B5054600F0E4FA76
:101AA000344B1B68A3B1344B1B681D424AD135B17E
:101AB000083515F0070F02D025F007050835002D71
:101AC00042D02E4B1B68AB424DD32D4A146804E024
:101AD000FFF77EFFE7E722461C466368AB4202D26F
:101AE0002368002BF7D1234B1B68A3423DD0166817
:101AF00008362368136063685B1B102B10D96019CC
:101B000010F0070F08D04FF0500383F31188BFF394
:101B10006F8FBFF34F8FFEE743606560FFF78AFF6B
:101B2000626816490B689B1A0B60164909688B425C
:101B300001D214490B60104B1B68134363600023F0
:101B4000236002E0002600E0002600F021FB16F0F2
:101B5000070F0CD04FF0500383F31188BFF36F8F42
:101B6000BFF34F8FFEE70026EFE70026EDE7304694
:101B700070BD00BF00030020043F0020083F00208C
:101B8000103F00200C3F002080B338B50446A0F180
:101B9000080550F8043C164A1268134208D14FF069
:101BA000500383F31188BFF36F8FBFF34F8FFEE7AE
:101BB00050F8081C41B14FF0500383F31188BFF374
:101BC0006F8FBFF34F8FFEE723EA020340F8043C18
:101BD00000F04AFA54F8041C064A13680B441360D8
:101BE0002846FFF727FF00F0D3FA38BD704700BF43
:101BF000043F0020083F0020084B1B681B6823B9E6
:101C0000074B4FF0FF321A607047044B1B68DB68CC
:101C1000DB685A68024B1A60704700BF1C3F002007
:101C2000F43F00202DE9F04707469846089DDDF86F
:101C300024900A9C266B02F18042013A06EB820650
:101C400026F00706C1B308464FF0000CBCF10F0F99
:101C500009D810F80C2004EB0C0383F8342012B1DF
:101C60000CF1010CF2E7002384F84330062D00D973
:101C70000625E56265644FF0000AC4F848A0201DFF
:101C8000FFF7DAFC04F11800FFF7D6FC2461C5F178
:101C90000705A5616462C4F84CA084F850A04246D0
:101CA00039463046FFF740FD2060B9F1000F01D002
:101CB000C9F80040BDE8F087002384F83430D5E748
:101CC00038B5002407E004EB840293000E48184462
:101CD000FFF7A7FC0134062CF5D90C4D2846FFF779
:101CE000A0FC0B4C2046FFF79CFC0A48FFF799FC30
:101CF0000948FFF796FC0948FFF793FC084B1D6065
:101D0000084B1C6038BD00BF243F0020C83F0020A6
:101D1000DC3F0020FC3F0020284000201440002031
:101D20001C3F0020203F002010B50446FFF72AFD8D
:101D3000214A136801331360204B1B685BB1204BB1
:101D40001B686BB91D4B1B68DA6AE36A9A4207D8B5
:101D50001A4B1C6004E0194B1C601368012B28D03F
:101D6000184A136801331360E06A01238340164A5E
:101D700011680B43136000EB8000211D134B03EB34
:101D80008000FFF75CFCFFF71FFD0D4B1B687BB16C
:101D90000A4B1B68DA6AE36A9A4209D24FF0E023E1
:101DA0004FF08052C3F8042DBFF34F8FBFF36F8FF6
:101DB00010BDFFF785FFD3E7B03F0020183F00209C
:101DC00010400020C03F0020C43F0020243F0020DE
:101DD00010B5044690F8513063B1012B11D0022B9D
:101DE0000ED04FF0500383F31188BFF36F8FBFF312
:101DF0004F8FFEE7006BFFF7C7FE2046FFF7C4FEDC
:101E000010BDFFF7C1FEFBE70F4B1B68D3B110B548
:101E1000FFF7B8FC0D4BDB68DC68201DFFF733FCD7
:101E20000B4A1368013B1360074A1368013B1360B8
:101E3000FFF7CAFC2046FFF7CBFF034B1B68002BC4
:101E4000E6D110BD704700BFB43F002028400020FD
:101E5000B03F002008B5FFF7D7FF074B1B68012BE9
:101E6000F9D94FF0E0234FF08052C3F8042DBFF3AF
:101E70004F8FBFF36F8FEEE7243F002070B504460D
:101E80000D461D4B1E681D4B18680430FFF7FBFB09
:101E900048B91A4B1B68DB6A01229A4018490B6843
:101EA00023EA02030B60B4F1FF3F0DD03444134B1F
:101EB0001B685C60A64210D9124B18680F4B19685A
:101EC0000431FFF7C7FB70BD002DEFD00B4B196835
:101ED00004310D48FFF7B3FBF5E70C4B1868074BCF
:101EE00019680431FFF7B6FB094B1B68A342EAD916
:101EF000074B1C60E7E700BF3C400020183F002074
:101F0000C43F0020203F0020144000201C3F002040
:101F1000F43F002030B587B00B9C7CB10C9DB5B16F
:101F200054250495049D542D1AD04FF0500383F38B
:101F30001188BFF36F8FBFF34F8FFEE74FF0500351
:101F400083F31188BFF36F8FBFF34F8FFEE74FF01E
:101F5000500383F31188BFF36F8FBFF34F8FFEE7FA
:101F6000049D0C9D2C63022485F8514000240394A9
:101F7000029505AC01940A9C0094FFF753FE0C985F
:101F8000FFF7D2FE059807B030BD2DE9F04385B0CC
:101F90000746884614461E469000FFF77DFD00B3B5
:101FA00081465420FFF778FD0546B0B1C0F8309067
:101FB000E5B1002385F85130039302950D9B019301
:101FC0000C9B00933346224641463846FFF72AFED3
:101FD0002846FFF7A9FE012005E04846FFF7D4FD9B
:101FE000E6E74FF0FF3005B0BDE8F0834FF0FF307B
:101FF000F9E7000010B588B000240594069407AAFC
:1020000006A905A8FEF7C2FA059B0293069B019359
:1020100000942346079A0E490E48FFF77BFF0E4BAC
:10202000186090B14FF0500383F31188BFF36F8FA6
:10203000BFF34F8F094B4FF0FF321A60084B01225C
:102040001A60084B1C60FFF737FC08B010BD00BFDA
:1020500010250008551E0008F03F0020F43F002026
:10206000104000203C400020024A136801331360F6
:10207000704700BFBC3F0020F8B53A4B1B68002BEF
:1020800064D1394B1D6801351D60C5B9374B1B68DC
:102090001B6843B14FF0500383F31188BFF36F8F78
:1020A000BFF34F8FFEE7314A1168314B186810605B
:1020B0001960304A136801331360FFF79DFD2E4B02
:1020C0001B68AB4238D900272C4B1B68DB6A03EB3B
:1020D00083039A002A4B9B58012B3CD901273AE0F5
:1020E0000127224B1B681B6843B3204B1B68DB682E
:1020F000DC6863689D4226D3261D3046FFF7C3FA8D
:10210000A36A1BB104F11800FFF7BDFAE36A0122CC
:102110009A401C49086802430A6003EB83039A0053
:10212000314617481044FFF78AFAE26A134B1B68DE
:10213000DB6A9A42D4D2D4E70027D2E70E4B4FF0A5
:10214000FF321A60C0E70C4A1360BDE70E4A1368FD
:102150000133136000270D4B1B6803B1012738467C
:10216000F8BD00BFBC3F00203C4000201C3F0020C9
:10217000203F0020F83F0020F43F0020183F0020BF
:10218000243F0020C43F0020B83F002040400020F2
:1021900038B5354B1B6843B94FF0500383F31188B2
:1021A000BFF36F8FBFF34F8FFEE7FFF7EBFA2E4BB6
:1021B0001A68013A1A601B68002B4FD12B4B1B6821
:1021C0000BB900244BE00024294B1B681BB3284BA0
:1021D000DB68DC6804F11800FFF755FA251D284676
:1021E000FFF751FAE06A01238340224A11680B434A
:1021F000136000EB800029461F4B03EB8000FFF7C4
:102200001EFAE26A1D4B1B68DB6A9A42DCD31C4B48
:1022100001221A60D8E70CB1FFF7EEFC194B1C68DD
:1022200084B9174B1C68D4B14FF0E0234FF08052B3
:10223000C3F8042DBFF34F8FBFF36F8F01240EE05F
:10224000013C07D0FFF718FF0028F9D00C4B012202
:102250001A60F5E70B4B00221A60E2E70024FFF753
:10226000B3FA204638BD00BFBC3F0020B03F00207D
:10227000FC3F0020C43F0020243F0020183F0020E6
:1022800040400020B83F002010B5A8B10446104BD4
:102290001B6843B14FF0500383F31188BFF36F8F76
:1022A000BFF34F8FFEE7FFF7DFFE00212046FFF769
:1022B000E5FDFFF76DFF48B94FF0E0234FF0805286
:1022C000C3F8042DBFF34F8FBFF36F8F10BD00BF56
:1022D000BC3F0020204B1B681BB1204B01221A6021
:1022E00070471E4B00221A601D4B1B68B3FA83F324
:1022F000DBB2C3F11F0303EB83018A0019498A583B
:1023000042B94FF0500383F31188BFF36F8FBFF3CF
:102310004F8FFEE7134903EB830082000A445068A5
:102320004068506003EB830C4FEA8C020832114482
:10233000884209D003EB83039A000A4B13445B687D
:10234000DA68094B1A607047406862469100054A96
:102350000A445060EEE700BFBC3F00204040002030
:10236000C43F0020243F0020183F002002440346C1
:10237000934200D1704703F8011BF9E770B50D4D8A
:102380000D4C641BA4100026A64209D10B4D0C4C29
:1023900000F07EF8641BA4100026A64205D170BD93
:1023A00055F8043B98470136EEE755F8043B98474B
:1023B0000136F2E720250008202500082025000826
:1023C0002825000870477047024B13B1024800F0FF
:1023D00005B8704700000000E9230008002301460B
:1023E0001A46184600F014B838B5074D074C641B60
:1023F000A4101CB9BDE8384000F050B8013C55F8B5
:1024000024309847F5E700BF282500082C25000850
:102410002DE9F047DFF874A00646DAF80000984688
:102420000F469146FFF7CEFF164B1C680CB9164CB1
:102430001C606568DAF800001F2D05DDFFF7C3FF9B
:102440004FF0FF30BDE8F0879EB104EB850101221B
:10245000C1F88890D4F88831AA401343C4F8883171
:10246000022EC1F8088102BFD4F88C311343C4F89E
:102470008C316B1C0235636044F82570FFF7A3FFB5
:102480000020DFE7484000204C40002010000020E2
:10249000F8B500BFF8BC08BC9E467047F8B500BF51
:0824A000F8BC08BC9E46704721
:1024A800EC24000879050008000000000000000086
:1024B800800000000000000000000000E024000888
:1024C80083050008FDFF00000000000080000000F8
:1024D80000000000000000004D6F746F72546173BB
:1024E8006B00000064656661756C745461736B0001
:1024F80000000000000000000102030406070809AC
:10250800000000000102030449444C45000000009B
:08251800E8DCFF7F0100000078
:08252000C9230008B501000801
:042528009101000815
:10252C000024F4000100000010000000AAAAAAAACE
:04253C0044400020F7
:040000050800081DCA
:00000001FF
